:020000040800F2
:1000000000800120410200089102000891020008CE
:10001000910200089102000891020008000000000F
:100020000000000000000000000000009102000835
:10003000910200080000000091020008AD080008CD
:1000400000000000910200089102000891020008DF
:100050009102000891020008910200089102000834
:1000600091020008910200089102000800000000BF
:100070000000000000000000000000000000000080
:1000800000000000000000009102000800000000D5
:1000900000000000000000000000000091020008C5
:1000A00091020008910200089102000891020008E4
:1000B00091020008910200089102000891020008D4
:1000C00091020008910200089102000891020008C4
:1000D000910200089102000891020008000000004F
:1000E000910200089102000891020008000000003F
:1000F0000000000000000000000000000000000000
:10010000000000009102000891020008910200081E
:1001100000000000000000000000000000000000DF
:1001200000000000000000000000000000000000CF
:1001300000000000000000000000000000000000BF
:100140000000000000000000000000009102000814
:100150000000000000000000000000009102000804
:100160009102000891020008000000000000000059
:10017000000000000000000000000000000000007F
:1001800000000000910200080000000000000000D4
:0401900091020008D0
:1001940010B5054C237833B9044B13B10448AFF3BD
:1001A40000800123237010BD2800002000000000FF
:1001B4009831000808B5034B1BB103490348AFF35A
:1001C400008008BD000000002C00002098310008C9
:1001D40080B582B002AF00F091F800F0A7F90021D9
:1001E400134800F0D9FC124800F01DFD11491048D5
:1001F40001F032FE00230093FF23FF2200210C486C
:1002040001F009FF00230093002300220121084884
:1002140001F001FF064801F0F9FF074B00930023AA
:100224004B220021024801F053FD00F05FFAFCE785
:1002340044000020AC320008B03100080D48854667
:1002440000F026F80C480D490D4A002302E0D4586A
:10025400C4500433C4188C42F9D30A4A0A4C00230C
:1002640001E013600432A242FBD302F06FFFFFF7F8
:10027400AFFFFEE7008001200000002028000020DE
:10028400D03B0008280000209C120020FEE700005C
:1002940080B500AF164BD3F88830154A43F4700389
:1002A400C2F88830134B1B68124A43F001031360F1
:1002B400104B00229A600F4B1B680E4A23F0847384
:1002C40023F4803313600B4B0B4A5A60094B1B68B1
:1002D400084A23F480231360064B0022DA6000F0FE
:1002E40089F8034B4FF000629A6000BF80BD00BFE5
:1002F40000ED00E0003802401030002480B487B0E4
:1003040000AF00233B6100237B610223FB600023D9
:10031400BB6002237B60324B9B6803F00C033B61A0
:100324003B69042B07D0082B09D0002B3DD12D4B62
:100334002D4A1A603DE02B4B2C4A1A6039E0284BB9
:100344005B689B0D03F00103BB60254B5B6803F006
:100354003F037B60BB68002B0CD0244A7B68B2FB54
:10036400F3F31F4A52689209C2F3080202FB03F333
:100374007B610BE01C4A7B68B2FBF3F3184A5268BA
:100384009209C2F3080202FB03F37B61144B5B681E
:100394001B0C03F0030301335B00FB607A69FB6809
:1003A400B2FBF3F30F4A136003E00E4B0E4A1A60DC
:1003B40000BF0B4B9B681B0903F00F030C4AD35C73
:1003C400DBB23B61074B1A683B6922FA03F3054A27
:1003D400136000BF1C37BD465DF8047B704700BF47
:1003E40000380240000000200024F40040787D0121
:1003F4000400002080B400AF224B1B6C214A43F060
:1004040080531364204B1B681F4A43F4404313601A
:100414001C4B1C4A9B6893601A4B1A4A9B68936056
:10042400184B9B68174A43F480539360154B174A43
:100434005A60144B1B68134A43F08073136000BF67
:10044400104B1B6803F00073002BF9D0104B40F2E3
:1004540002621A600B4B9B680A4A23F00303936001
:10046400084B9B68074A43F00203936000BF054BA7
:100474009B6803F00C03082BF9D100BFBD465DF85F
:10048400047B70470038024000700040105401089B
:10049400003C024080B483B000AF03463960FB7176
:1004A40097F90730002B0BDA3B68DAB20C49FB7979
:1004B40003F00F03043B1201D2B20B441A7609E095
:1004C4003B68DAB2074997F907301201D2B20B44FC
:1004D40083F8002300BF0C37BD465DF8047B7047EA
:1004E40000ED00E000E100E080B582B000AF78608C
:1004F4007B68013BB3F1807F01D301230FE00A4AFB
:100504007B68013B53600F214FF0FF30FFF7C2FFC0
:10051400054B00229A60044B07221A6000231846F8
:100524000837BD4680BD00BF10E000E080B584B050
:1005340000AF3B46184602F039F83B680A4AA2FB72
:1005440003239B091846FFF7CFFF01214FF0FF302B
:10055400FFF7A0FF4FF4C0720021044801F066FFCA
:1005640000BF1037BD4680BDD34D6210F800002097
:1005740090B587B000AFF860B9603B601346FB717B
:100584000023FB754CE0FA7D294913465B001344B4
:10059400DB000B4410331B68002B3ED1FA7D244949
:1005A40013465B001344DB000B44FA681A60FA7DBF
:1005B4001F4913465B001344DB000B4410333A68B5
:1005C4001A60FA7D1A4913465B001344DB000B449E
:1005D4000C33FA791A70FA7D154913465B001344FB
:1005E400DB000B441433BA6A1A60FC7D00F072F825
:1005F40001460F4A23465B002344DB0013440433C3
:100604001960FA7D0A4913465B001344DB000B446E
:100614000833BA681A60FB7D06E0FB7D0133FB7585
:10062400FB7D0F2BAFD9FF2318461C37BD4690BD69
:10063400F800002080B483B000AF0346FB71FB795F
:100644000F2B0AD8FA79224913465B001344DB00C6
:100654000B4410331B68002B01D1002331E0FA79DD
:100664001B4913465B001344DB000B4400221A6051
:10067400FA79174913465B001344DB000B4410332B
:1006840000221A60FA79124913465B001344DB0016
:100694000B440C3300221A70FA790D4913465B009F
:1006A4001344DB000B44083300221A60FA7908492A
:1006B40013465B001344DB000B44043300221A602E
:1006C400012318460C37BD465DF8047B704700BF14
:1006D400F800002080B400AF034B1B681846BD46E9
:1006E4005DF8047B704700BF7802002080B584B0B9
:1006F40000AF0023FB7368E0FA7B374913465B00C5
:100704001344DB000B4410331B68002B5AD0FB7BD3
:10071400184600F063F80346002B53D0FA7B2E49A9
:1007240013465B001344DB000B4410331B68BB60AF
:10073400FA7B294913465B001344DB000B44143352
:100744001B687B60FA7B244913465B001344DB007F
:100754000B440C331B78DBB2FF2B20D0FA7B1E49F1
:1007640013465B001344DB000B440C331B78DBB2F1
:10077400002B14D0FA7B184913465B001344DB00AA
:100784000B440C331B78DBB2013BD8B2124913463D
:100794005B001344DB000B440C3302461A70FA7BF3
:1007A4000D4913465B001344DB000B440C331B78E8
:1007B400DBB2002B03D1FB7B1846FFF73BFFBB6882
:1007C40078689847FB7B0133FB73FB7B0F2B93D932
:1007D40000BF1037BD4680BDF800002080B584B04E
:1007E40000AF0346FB710023FB6072B6FFF772FF94
:1007F400B860FB790F2B0AD8FA792A4913465B00B3
:100804001344DB000B4410331B68002B02D162B687
:10081400002342E0FA79234913465B001344DB00CA
:100824000B4404331B68BA689A420CD3FA791D4905
:1008340013465B001344DB000B4404331B68BA68A3
:10084400D31AFB600EE0FA79164913465B00134491
:10085400DB000B4404331A68BB68D31AFB60FB68E3
:10086400DB43FB60FA790F4913465B001344DB005A
:100874000B4408331B68FA689A4202D262B600231A
:100884000BE0FA79074913465B001344DB000B4481
:100894000433BA681A6062B6012318461037BD469D
:1008A40080BD00BFF800002080B400AF044B1B687B
:1008B4000133034A136000BFBD465DF8047B7047F3
:1008C4007802002080B483B000AF786000BF0C379A
:1008D400BD465DF8047B704780B582B000AF01214E
:1008E400072001F00BFF01233B7103237B710023DD
:1008F400BB710023FB714FF468733B603B461946A0
:100904000A4801F0ACFD4FF488633B603B4619464E
:10091400074801F0A4FD80233B603B461946054887
:1009240001F09DFD00BF0837BD4680BD00000240B8
:10093400000402400008024080B584B000AF786033
:100944000B46FB700823FB7397F90330002B05DA81
:1009540001228021144801F010FE04E000228021CD
:10096400114801F00AFE0120FFF7ACFF012220210B
:100974000D4801F002FE0120FFF7A4FFFB7B013BC1
:10098400FB7300222021084801F0F7FD0120FFF746
:1009940099FFFB785B00FB70FB7B002BD4D100BF7D
:1009A4001037BD4680BD00BF0000024080B584B052
:1009B40000AFF8607B600B467B8113463B81B7F93F
:1009C4000A300A3B0B2B00F2DC8001A252F823F020
:1009D400050A0008870B0008570A0008610A000886
:1009E400710A0008810A0008930A0008B30A000883
:1009F400DB0A0008110B00082F0B00087F0B00080E
:100A0400FFF76AFF01228021604801F0B6FD012250
:100A140040215F4801F0B1FD012280215D4801F0D1
:100A2400ACFD01224FF40071584801F0A6FD0022EC
:100A34002021564801F0A1FD01224FF48061544861
:100A440001F09BFD01224FF48071504801F095FDA7
:100A540097E03B891846FFF735FF92E03B89DBB20C
:100A64001A4680214B4801F088FD8AE03B89DBB2BD
:100A74001A464021464801F080FD82E03B89DBB202
:100A84001A464FF40071414801F077FD79E03B8943
:100A9400DBB21946F868FFF74FFF72E07B681B78FA
:100AA4001946F868FFF748FF3B89013B3B813B89C6
:100AB400002BF3D165E07B681B781946F868FFF7D3
:100AC4003BFF7B6801331B781946F868FFF734FF56
:100AD4003B89013B3B813B89002BECD151E07B6896
:100AE4001B781946F868FFF727FF7B6801331B78EA
:100AF4001946F868FFF720FF7B6802331B78194614
:100B0400F868FFF719FF3B89013B3B813B89002BC8
:100B1400E5D136E07B685A1C7A601B781946F86880
:100B2400FFF70AFF3B89013B3B813B89002BF1D155
:100B340027E07B681B78002B10D07B681B78012B87
:100B440006D100224FF40071104801F016FD05E0B3
:100B540001224FF400710D4801F00FFD7B68013351
:100B64007B607B681B781946F868FFF7E5FE7B68B5
:100B740001337B603B89013B3B813B89002BD8D10E
:100B840000BF012318461037BD4680BD0000024057
:100B9400000402400008024080B582B000AF7860D3
:100BA4000B46FB70074B084A0849786801F0A2F924
:100BB400FB781946786800F086FF00BF0837BD4609
:100BC40080BD00BFB10900080912000831130008F4
:100BD40080B584B000AFF860084611461A46034653
:100BE4007B810B463B811346FB8014E0B7F906304A
:100BF400B7F90820B7F90A10F86801F0EDF9B7F968
:100C040018309BB2013B9BB23B83B7F908309BB2CF
:100C140001339BB23B81B7F91830002BE6DC00BFEF
:100C24001037BD4680BD80B584B002AF7860002324
:100C34000093002300220021786801F0ECF9786821
:100C440000F03BFB7B68B3F902207B68B3F9043006
:100C540000931346002200217868FFF7B9FFFF23B1
:100C64000093FF23FF220021786801F0D4F900BF2C
:100C74000837BD4680BD80B483B000AF78600846B5
:100C840011461A460346FB700B46BB7013463B8065
:100C94007B68FA785A70BB789AB2FB789BB2D31A05
:100CA4009BB21AB27B689A803B88013B9BB21AB212
:100CB4007B681A817B6801225A807B68B3F904300F
:100CC4001A467B68B3F9083092FBF3F31AB27B68D7
:100CD400DA807B68B3F90430002B0CDA7B68B3F953
:100CE40004309BB25B429BB21AB27B689A807B68E9
:100CF4004FF6FF725A807B68B3F904307A68B2F910
:100D0400082093FBF2F102FB01F29B1A1AB27B68F2
:100D14005A817B68B3F90830DA0F13445B101AB2B6
:100D24007B689A817B68FA781A7000BF0C37BD46DD
:100D34005DF8047B704780B483B000AF78607B6853
:100D44001A787B68B3F90630DBB21344DAB27B68F5
:100D54001A707B68B3F90C309AB27B68B3F90A3025
:100D64009BB213449BB21AB27B689A817B68B3F935
:100D74000C207B68B3F908309A4216DB7B681A783A
:100D84007B68B3F90230DBB21344DAB27B681A70C1
:100D94007B68B3F90C309AB27B68B3F908309BB224
:100DA400D31A9BB21AB27B689A8100BF0C37BD4636
:100DB4005DF8047B704780B485B000AF78600B4663
:100DC4007B807B68B3F90630DAB27B681A707B6883
:100DD4001A787B88DBB212FB03F3DAB27B681A70F1
:100DE4007B68B3F90A309AB27B8812FB03F39AB298
:100DF4007B68B3F90830D90F0B445B101BB29BB26C
:100E040013449BB2FB817B68B3F90230002B0EDBE9
:100E14007B681A78B7F90E307968B1F9081093FB3A
:100E2400F1F3DBB21344DAB27B681A700DE07B682D
:100E34001A78B7F90E307968B1F9081093FBF1F319
:100E4400DBB2D31ADAB27B681A70B7F90E307A685B
:100E5400B2F9082093FBF2F102FB01F29B1A1AB2D9
:100E64007B689A817B681A787B685B781344DAB272
:100E74007B681A7000BF1437BD465DF8047B704769
:100E840080B584B000AFF8600B467A607B81B7F917
:100E94000A300C2B0AD0172B0FD1FB68DB68B7F98B
:100EA4000A107A68F8689847034607E0FB687A688E
:100EB40070331068516803C300BF0123184610370C
:100EC400BD4680BD80B485B000AFF8600B467A6043
:100ED4007B81012318461437BD465DF8047B7047B7
:100EE40090B585B000AF7860786801F0C5FC034622
:100EF400002B53D07B68B3F92E30012B08D0022B82
:100F04000BD0002B1BD12849786801F0E3FF28E0BF
:100F14002649786801F0DEFF23E07B689B8CFB8127
:100F2400FB89C3F17F039BB21AB27B689A84204980
:100F3400786801F0CFFF7B68FA899A8411E07B68B6
:100F4400DB8CFB81FB89C3F17F039BB21AB27B6804
:100F5400DA841849786801F0BDFF7B68FA89DA847D
:100F640000BF7B6893F828303B727B6893F8293084
:100F74007B727B6893F82A30BB727B68DC697B6880
:100F8400B3F92C309AB207F1080313217868A0470B
:100F94000121786801F0EAFE012300E000231846ED
:100FA4001437BD4690BD00BFEC3100080C32000878
:100FB400303200085432000890B587B000AF786032
:100FC4000023FB751AE07B6803F14601FA7D1346A2
:100FD400DB009B1A5B00C818FB7D7A68134493F806
:100FE4003A10FB7D7A68134493F83D207B68B3F98B
:100FF4002C30FFF740FEFB7D0133FB75FB7D022B9C
:10100400E1D9786801F0B8FD0346002B71D07B6804
:10101400B3F92E30012B08D0022B0BD0002B1BD19F
:101024003649786801F056FF28E03549786801F0C0
:1010340051FF23E07B689B8C7B827B8AC3F17F0317
:101044009BB21AB27B689A842E49786801F042FFF9
:101054007B687A8A9A8411E07B68DB8C7B827B8A4A
:10106400C3F17F039BB21AB27B68DA84264978689D
:1010740001F030FF7B687A8ADA8400BF0023BB82E8
:101084002AE07B6893F846303B737B6893F85430CE
:101094007B737B6893F86230BB737B68DC6907F110
:1010A4000C03012213217868A0477B684633184655
:1010B400FFF741FE7B6846330E331846FFF73BFECD
:1010C4007B6846331C331846FFF735FEB7F91430F6
:1010D4009BB201339BB2BB827B68B3F92C30B7F966
:1010E40014209A42CDDB0121786801F03FFE0123F0
:1010F40000E0002318461C37BD4690BDEC310008C3
:101104000C320008303200085432000890B587B021
:1011140000AFF8600B467A607B81B7F90A300A3B6E
:101124000B2B5FD801A252F823F000BF6111000815
:101134007B110008E9110008E9110008E911000811
:1011440087110008E9110008E9110008E9110008F5
:10115400E911000897110008DF110008FB6802225A
:101164001A84FB6801225A8442226421F86801F03F
:101174004CFD03463EE02149F86801F0ABFE012333
:1011840038E07B6880221A807B6880225A800123A1
:1011940030E0F86801F056FB0346002B1BD01849D9
:1011A400F86801F097FEFB6893F828303B75FB68FC
:1011B40093F829307B75FB6893F82A30BB75FB687C
:1011C400DC6907F1140301221321F868A047012107
:1011D400F86801F0CBFD01230CE0F868FFF780FE0E
:1011E400012307E0B7F90A307A681946F868FFF76F
:1011F40047FE034618461C37BD4690BD78320008AA
:10120400CC31000880B584B000AFF8600B467A603A
:101214007B81B7F90A30172B03D1F868FFF7CCFEAE
:1012240000BF012318461037BD4680BD80B582B08B
:1012340000AF78607B681B7803F00103DBB2002BFE
:101244000AD07B689B6800220B21786898477A68EB
:1012540013786FF30003137000BF0837BD4680BDD9
:1012640080B584B000AF78607868FFF7DFFF7B68F3
:101274009B6800220A21786898470346FB81B7F9E6
:101284000E30002B04D07A68137843F001031370F6
:10129400B7F90E3018461037BD4680BD80B582B010
:1012A40000AF786039607B689B683A680C21786885
:1012B400984700BF0837BD4680BD80B584B000AFF5
:1012C40078607A6807F10C03023210681860002312
:1012D4003B8100237B8107F1080319467868FFF7F7
:1012E400DDFF00BF1037BD4680BD80B582B000AFC2
:1012F40078607B689B687A6802320F217868984727
:101304007868FFF7DAFF00BF0837BD4680BD80B5B7
:1013140082B000AF78607B689B687A6824321521BC
:101324007868984700BF0837BD4680BD80B584B053
:1013340000AFF8600B467A607B81B7F90A300B2B5B
:1013440015D00F2B1CD00A2B22D1B7F90A307A689A
:101354001946F868FFF7DAFE0346002B01D1002393
:101364001EE01149F86801F0B5FD012318E0B7F952
:101374000A307A681946F868FFF7C8FE03460FE09A
:101384007B6880221A807B6880225A80012307E0D0
:10139400B7F90A307A681946F868FFF7B7FE0346CA
:1013A40018461037BD4680BD8032000880B483B033
:1013B40000AF78600B46FB70FB787A6813447B605F
:1013C4007B681B7818460C37BD465DF8047B704774
:1013D40080B485B000AF78600B46FB70FB787A6808
:1013E40013447B607B681B78FB817B6801337B60E3
:1013F400FB891B02FB817B681B789AB2FB8913442F
:10140400FB81FB8918461437BD465DF8047B7047A1
:1014140080B582B000AF7860396000213868FFF78A
:10142400C5FF03461A467B681A7001213868FFF726
:10143400BDFF03461A467B685A7002213868FFF7DD
:10144400B5FF03461A467B689A7003213868FFF794
:10145400ADFF03461A467B68DA7004213868FFF74B
:10146400A5FF03461A467B681A7105213868FFF701
:101474009DFF03461A467B685A7106213868FFF7B8
:1014840095FF03461A467B689A7107213868FFF76F
:101494008DFF03461A467B68DA7108213868FFF726
:1014A40085FF03461A467B681A7209213868FFF7DC
:1014B4007DFF03465AB27B685A720A213868FFF7E7
:1014C40075FF03465AB27B689A720B213868FFF79E
:1014D4006DFF03465AB27B68DA720C213868FFF755
:1014E40065FF03465AB27B681A730D213868FFF70B
:1014F4005DFF03465AB27B685A730E213868FFF7C2
:1015040055FF03465AB27B689A730F213868FFF778
:101514004DFF03465AB27B68DA7310213868FFF72F
:1015240045FF03465AB27B681A7411213868FFF7E5
:101534004FFF03461A467B685A8213213868FFF727
:1015440047FF03461A467B689A8200BF0837BD46A8
:1015540080BD80B485B000AF78600B46FB707B68BB
:101564001B7B7B737B681B681B78FB73FA7B7B7B21
:1015740042FA03F3FB737B7BBB73BA7BFB781344A4
:10158400BB73BB7B072B1AD908233B733A7B7B7B4A
:10159400D31A3B737B681B685A1C7B681A607B6890
:1015A4001B681B781A463B7B02FA03F35AB297F97D
:1015B4000F3013435BB2FB73BB7B083BBB73FB78FD
:1015C4004FF0FF3202FA03F3DBB2DB43DAB2FB7B08
:1015D4001340FB737B68BA7B1A73FB7B1846143782
:1015E400BD465DF8047B704780B584B000AF786079
:1015F4000B46FB70FB7819467868FFF7AAFF034691
:10160400FB730123BB73FB78013BFB7097F90E203E
:10161400FB7802FA03F3BB73FA7BBB7BD31ADBB20E
:10162400FB7397F90F3018461037BD4680BD90B450
:1016340082B000AF0446084611461A462346FB8092
:1016440003467B710B463B711346FB70FB78012B01
:101654000BD0022B11D0002B17D197F904309AB27A
:10166400FB8813449BB2FB8017E097F905309AB2CC
:10167400FB8813449BB2FB800FE0FA8897F904308F
:101684009BB2D31A9BB2FB8007E0FA8897F9053026
:101694009BB2D31A9BB2FB8000BFB7F90630184641
:1016A4000837BD4690BC704790B482B000AF044682
:1016B400084611461A462346FB8003467B710B46B7
:1016C4003B711346FB70FB78012B0BD0022B11D01E
:1016D400002B17D197F905309AB2FB8813449BB2BB
:1016E400FB8017E0FA8897F904309BB2D31A9BB2B7
:1016F400FB800FE0FA8897F905309BB2D31A9BB2AE
:10170400FB8007E097F904309AB2FB8813449BB23C
:10171400FB8000BFB7F9063018460837BD4690BCB9
:10172400704790B589B002AF78600B46FB701346E2
:10173400BB707B6880333B61FB78FB753B6993F935
:1017440008307B753B6993F909303B753B6993F924
:101754000A30FB73FA7B7B7DD31AFB73FB7BBB756F
:10176400FA7DFB7B9A4201D2FB7DBB753B699B886A
:10177400BB813B69DB887B8197F9151097F91420AD
:101784003B699B7BB7F90C00FFF78EFF0346BB81D7
:1017940097F9151097F914203B699B7BB7F90A0058
:1017A400FFF745FF03467B81BB78002B11D0BB7D3F
:1017B4001CB23B699B7B1BB2B7F90A00B7F90C104A
:1017C40000220192009323460246786800F0C0FB91
:1017D40014E03B695B7B002B10D1BB7D1CB23B69E1
:1017E4009B7B1BB2B7F90A00B7F90C1001220192D6
:1017F400009323460246786800F0AAFBFA7DFB7B3F
:101804009A4209D3FA7DFB7BD31AFB7500237B75BF
:101814003B7D01333B7599E700BF7A7DFB7D134423
:101824007B7597F915203B691A7297F914203B6967
:101834005A7200BF1C37BD4690BD80B584B000AF5E
:10184400786039607B688033FB60FB683A681A60B3
:10185400FB6800221A73FB681B685A1CFB681A6039
:10186400FB681B685A1CFB681A607B6893F8943009
:101874001946F868FFF76DFE03465AB2FB689A7280
:101884007B6893F895301946F868FFF762FE0346C3
:101894005AB2FB68DA7200BF1037BD4680BD80B50E
:1018A40084B000AF7860396039687868FFF7C5FFA5
:1018B4007B6893F88B30FB737B6803F180027B6851
:1018C40093F8963019461046FFF78EFE0346BB7315
:1018D4007B6803F180027B6893F8973019461046C1
:1018E400FFF782FE03467B737B6803F180027B680B
:1018F40093F8983019461046FFF776FE03463B737B
:101904007B6893F98A30002B69DD7B68B3F9840026
:10191400FA7B7B7B1344DBB25B42DBB25AB27B685B
:1019240093F88E3097F90E10FFF7BEFE03461A4661
:101934007B68A3F884207B68B3F98600FA7B7B7B01
:101944001344DBB25B42DBB25AB27B6893F88E304D
:1019540097F90E10FFF76BFE03461A467B68A3F84F
:1019640086207B68002283F888207B68002283F825
:1019740089207B6803F180027B6893F892301946D2
:101984001046FFF7E6FD0346FB727B6803F1800215
:101994007B6893F8933019461046FFF7DAFD034647
:1019A400BB72FB7A002219467868FFF7BAFEBB7A4D
:1019B400012219467868FFF7B4FE7B688033012161
:1019C4001846FFF7C6FD0346002BEAD17B6893F95E
:1019D400893097F90F209A4200DDCAE700BF97F9D2
:1019E4000C3018461037BD4680BD80B485B000AFBA
:1019F40078600B46FB707B689B6FFB60FB6815335C
:101A0400FB60FB78602B07D97B68B3F8A4301A46D7
:101A1400FB681344FB6009E0FB78402B06D97B6824
:101A2400B3F8A2301A46FB681344FB60FB68013329
:101A34001B78002B0ED0FB681B78FA789A4201D1F0
:101A4400FB6809E0FB6801331B781A46FB68134402
:101A5400FB60EBE700BF002318461437BD465DF872
:101A6400047B704780B586B000AFF8600846114625
:101A74001A4603467B810B463B811346FB710023C8
:101A8400FB82FB687A89A3F88420FB683A89A3F86F
:101A94008620FB68FA7983F88E2097F8203019465F
:101AA400F868FFF7A2FF38613B69002B05D039695C
:101AB400F868FFF7F4FE0346FB82B7F916301846C0
:101AC4001837BD4680BD80B483B000AF78600B4644
:101AD400FB707B68FA7883F88D2000BF0C37BD4615
:101AE4005DF8047B7047000080B586B002AFF860F3
:101AF400084611461A4603467B810B463B81134632
:101B0400FB71FB79032B37D801A252F823F000BFF5
:101B1400251B00083B1B0008511B0008671B00081D
:101B2400FB68DB6FF868984703469AB23B89134415
:101B34009BB23B8120E0FB68DB6FF8689847034663
:101B44007A899BB2D31A9BB27B8115E0FB68DB6F69
:101B5400F868984703463A899BB2D31A9BB23B81F3
:101B64000AE0FB68DB6FF868984703469AB27B8902
:101B740013449BB27B8100BFF879B7F90820B7F909
:101B84000A103B7E00930346F868FFF76BFF034699
:101B940018461037BD4680BD80B586B002AF786068
:101BA4000023FB817B68BB60454B1B78002B02D074
:101BB400012B1ED07BE0434800F05DFB0346002B65
:101BC40007D041493F4800F0EFFB3D4B01221A701A
:101BD40071E03E4B1B78FF2B07D03C4B1B7818461B
:101BE400FEF728FD394BFF221A70354B00221A707C
:101BF40061E0354B9B681B78002B54D0324BB3F912
:101C04000010314BB3F902202F4B18792E4B9B68EF
:101C14001B7800930346B868FFF766FF0346FB8111
:101C2400294B1B79032B37D801A252F823F000BFAC
:101C3400451C00085B1C0008711C0008871C000878
:101C4400214BB3F900309AB2FB8913449BB21AB208
:101C54001D4B1A8021E01C4BB3F902309AB2FB8968
:101C640013449BB21AB2184B5A8016E0164BB3F9C0
:101C740000309AB2FB89D31A9BB21AB2124B1A8063
:101C84000BE0114BB3F902309AB2FB89D31A9BB221
:101C94001AB20D4B5A8000E000BF0B4B9B68013316
:101CA400094A936007E0064B00221A7003E0044BD4
:101CB40000221A7000BF00BF1037BD4680BD00BFB0
:101CC4008C1200207C0200209012002014000020BE
:101CD40080B58AB002AFF860084611461A4603463A
:101CE4007B810B463B811346FB710023FB837B897D
:101CF4003B823B897B82FB793B75BB6ABB6107F105
:101D0400100319460C4800F001FB0C4B1B78FF2B09
:101D14000BD1FB6800930A4BFF221E210948FEF7F2
:101D240027FC03461A46054B1A70B7F91E301846AD
:101D34002037BD4680BD00BF7C0200201400002077
:101D44009D1B0008BC31000880B483B000AF7860EC
:101D54007B689B6F002B5DD07B6893F99D207B682B
:101D640083F8AC207B6893F99E207B6883F8AD20D0
:101D74007B6893F8AB30002B4DD07B6893F8AB3085
:101D8400012B1CD17B6893F9AC207B6893F99F30BD
:101D94009A4205DA7B6893F99F207B6883F8AC202C
:101DA4007B6893F9AD207B6893F9A0309A4232DDC9
:101DB4007B6893F9A0207B6883F8AD202BE07B68D7
:101DC40093F9AC301A467B6893F99A3019467B68CC
:101DD40093F99C300B449A420DDA7B6893F99A305C
:101DE400DAB27B6893F99C30DBB21344DBB25AB2AB
:101DF4007B6883F8AC207B6893F9AD207B6893F90A
:101E04009C309A4207DD7B6893F99C207B6883F8B9
:101E1400AD2000E000BF0C37BD465DF8047B704781
:101E240080B483B000AF7860002318460C37BD46F9
:101E34005DF8047B7047000080B483B000AF786025
:101E44007B68044ADA6700BF0C37BD465DF8047B43
:101E5400704700BF251E000880B582B000AF7860CF
:101E640039607B689B6F3A689A4212D07B683A6803
:101E74009A677B68903339681846FFF7C9FA78681F
:101E8400FFF762FF4FF480530C220449044800F02A
:101E9400D7F900BF0837BD4680BD00BF7C020020D3
:101EA4008C02002080B483B000AF78607A68137825
:101EB4006FF3000313707B6800221A617B680122B0
:101EC4005A867B6800229A677B68012283F88D20FA
:101ED4007B68002283F8AE207B68002283F8AF2061
:101EE4007B68002283F8B02000BF0C37BD465DF844
:101EF400047B704780B586B000AFF860B9607A6043
:101F04003B60F868FFF7CEFF7B68002B03D1FB68CA
:101F14000E4ADA6002E0FB687A68DA60FB68BA6845
:101F24009A60FB683A68DA61F868FFF785FFF86839
:101F3400FFF796F90346FB82F868FFF7D6F9B7F97D
:101F4400163018461837BD4680BD00BFC90E0008BC
:101F540080B584B000AFF860084611461A460346BF
:101F64007B810B463B811346FB80B7F91C20F96843
:101F740013465B0013440B443A331A78FB6883F826
:101F84002820B7F91C20F96813465B0013440B445E
:101F94003B331A78FB6883F82920B7F91C20F968C9
:101FA40013465B0013440B443C331A78FB6883F8F4
:101FB4002A20FB687A899A84FB683A89DA84FB6868
:101FC400FA889A85FB683A8BDA85F868FFF79FF9F7
:101FD40000BF1037BD4680BD80B586B002AFF86043
:101FE400084611461A4603467B810B463B8113463D
:101FF400FB80B7F90600B7F90820B7F90A100023E7
:102004000193002300930346F868FFF7A1FF00BF84
:102014001037BD4680BD80B483B000AF78600846F9
:1020240011461A460346FB700B46BB7013467B7081
:10203400FA78796813465B0013440B443A33BA7850
:102044001A70FA78796813465B0013440B443B33E7
:102054007A781A70FA78796813465B0013440B4453
:102064003C333A7C1A7000BF0C37BD465DF8047BE4
:10207400704780B582B000AF78607B681B69002B25
:1020840006D07B681A697B689A607B6800221A61B3
:102094007868FFF72AF97868FFF70FF900BF083767
:1020A400BD4680BD80B485B000AF786039607B6880
:1020B400DB8AFB81FA893B68B3F902309BB2D31AFD
:1020C4009BB2FB81B7F90E309BB2013B9BB2FB8103
:1020D4003B68FA895A807B689B8ABB81BA893B68D2
:1020E400B3F900309BB2D31A9BB2BB81B7F90C3061
:1020F4009BB2013B9BB2BB813B68BA891A8000BF8B
:102104001437BD465DF8047B7047000080B584B089
:1021140000AFF8600B467A607B81B7F90A300C3B5C
:102124000B2B66D801A252F823F000BF7F210008D0
:10213400F7210008F721000861210008F7210008B1
:10214400F7210008F7210008F7210008C72100083B
:10215400C7210008F7210008C7210008FB681B6994
:10216400FA681432B7F90A10F86898477A68FB6875
:10217400143318681060012343E07B68B3F902301C
:102184009AB27B68B3F906309BB213449BB2013B0D
:102194009BB21AB27B685A807B68B3F900309AB25A
:1021A4007B68B3F904309BB213449BB2013B9BB2EE
:1021B4001AB27B681A807B681946F868FFF772FFC9
:1021C40017E0FB68B3F92E309BB202339BB21AB20C
:1021D400FB68DA85FB68B3F92E3003F003031AB207
:1021E400FB68DA85FB6824331946F868FFF75AFF61
:1021F40000BFFB681B69B7F90A107A68F86898474A
:10220400034618461037BD4680BD00BF80B582B076
:1022140000AF78607868FFF72CFF7B689A687B686A
:102224001A617B68054A9A607868FFF75EF87868F7
:10223400FFF743F800BF0837BD4680BD11210008F1
:1022440080B584B000AFF860B96011461A460B46F9
:10225400FB711346BB80BB68BA881A80BB68FA79E5
:102264001A71BB68FA68DA60B86800F036F800BF23
:102274001037BD4680BD80B483B000AF78607B6802
:102284005B8818460C37BD465DF8047B704780B404
:1022940083B000AF78607B685A887B681B889A4259
:1022A4002CBF01230023DBB218460C37BD465DF872
:1022B400047B704780B483B000AF78607B68DA88B1
:1022C4007B681B899A420CBF01230023DBB21846AA
:1022D4000C37BD465DF8047B704780B582B000AF13
:1022E40078607B680022DA807B6800221A817B6830
:1022F40000225A807B68D8687B681B881A460021B4
:1023040000F094F800BF0837BD4680BD80B584B0A6
:1023140000AF7860396072B60023FB7321E0FB7B69
:102324003A681A447B68DB687968C9880B44127878
:102334001A707B68DB8801339BB21AB27B681B88F6
:10234400013B9BB21BB213401BB29AB27B68DA808A
:102354007B685B8801339AB27B685A80FB7B0133CC
:10236400FB737B681B79FA7B9A42D8D37868FFF7B2
:102374008EFF0346002B11D07B681A897B681B797A
:102384009BB213449BB21AB27B681B88013B9BB27D
:102394001BB213401BB29AB27B681A8162B6002347
:1023A40018461037BD4680BD80B584B000AF786054
:1023B400396072B67868FFF77DFF0346002B05D0BD
:1023C4007B6800225A8062B602232BE00023FB7351
:1023D40021E07B68DB687A6812891A44FB7B3968E0
:1023E4000B4412781A707B681B8901339BB21AB2B2
:1023F4007B681B88013B9BB21BB213401BB29AB291
:102404007B681A817B685B88013B9AB27B685A803F
:10241400FB7B0133FB737B681B79FA7B9A42D8D32D
:1024240062B6002318461037BD4680BD80B483B021
:1024340000AF78600B46FB7013463B8004E07B687A
:102444005A1C7A60FA781A703B885A1E3A80002B1C
:10245400F5D100BF0C37BD465DF8047B704780B4EE
:1024640087B000AF7860396000237B6100233B6153
:102474000023FB6000237B6176E001227B6902FA82
:1024840003F33B613B681B683A691340FB60FA68DD
:102494003B699A4265D17B681A687B695B000321BA
:1024A40001FA03F3DB431A407B681A607B681A68FD
:1024B4003B681B7919467B695B0001FA03F31A43F5
:1024C4007B681A603B681B79012B03D03B681B793E
:1024D400022B2ED17B689A687B695B00032101FA89
:1024E40003F3DB431A407B689A607B689A683B6815
:1024F4005B7919467B695B0001FA03F31A437B6835
:102504009A607B685A687B699BB2194601238B40A9
:10251400DB431A407B685A607B685B683A6892794F
:1025240011467A6992B201FA02F292B21A437B68B6
:102534005A607B68DA687B699BB25B00032101FA0D
:1025440003F3DB431A407B68DA607B68DA683B6834
:10255400DB7919467B695B0001FA03F31A437B6854
:10256400DA607B6901337B617B690F2B85D900BFFE
:102574001C37BD465DF8047B704780B483B000AF60
:1025840078600B467B8013467B707B78002B03D0EE
:102594007B687A881A8302E07B687A885A8300BF52
:1025A4000C37BD465DF8047B7047000080B489B0E9
:1025B40000AF78600023BB6100237B610023FB61D3
:1025C40002233B610023FB600223BB60474B9B68F3
:1025D40003F00C03BB61BB69042B07D0082B09D0A3
:1025E400002B3DD17B68424A1A603DE07B68414A3A
:1025F4001A6039E03D4B5B689B0D03F00103FB60FF
:102604003A4B5B6803F03F03BB60FB68002B0CD0C4
:10261400384ABB68B2FBF3F3344A52689209C2F3F6
:10262400080202FB03F3FB610BE0314ABB68B2FB17
:10263400F3F32E4A52689209C2F3080202FB03F331
:10264400FB612A4B5B681B0C03F0030301335B0043
:102654003B61FA693B69B2FBF3F27B681A6003E001
:102664007B68234A1A6000BF204B9B6803F0F00389
:10267400BB61BB691B09BB611F4ABB6913441B785F
:10268400DBB27B617B681A687B69DA407B685A60DD
:10269400164B9B6803F4E053BB61BB699B0ABB61A7
:1026A400154ABB6913441B78DBB27B617B685A68AB
:1026B4007B69DA407B689A600C4B9B6803F4604347
:1026C400BB61BB695B0BBB610B4ABB6913441B78E1
:1026D400DBB27B617B685A687B69DA407B68DA60CD
:1026E40000BF2437BD465DF8047B704700380240C4
:1026F4000024F40040787D011800002080B483B0E9
:1027040000AF78600B46FB70FB78002B06D00A4BB9
:102714001A6B09497B6813430B6306E0064B1A6B7B
:102724007B68DB43044913400B6300BF0C37BD4691
:102734005DF8047B704700BF0038024080B485B068
:1027440000AF78607B689B8CFB81FA897B68B3F966
:1027540070309BB2D31A9BB2FB81B7F90E30002BB9
:1027640001DA002309E07B68B3F97430B7F90E206D
:102774009A4201DB002300E0012318461437BD46CA
:102784005DF8047B704780B485B000AF78607B68E7
:10279400DB8CFB81FA897B68B3F972309BB2D31A64
:1027A4009BB2FB81B7F90E30002B01DA002309E05C
:1027B4007B68B3F97630B7F90E209A4201DB002327
:1027C40000E0012318461437BD465DF8047B7047CA
:1027D40080B487B000AFF860B96011461A460B4662
:1027E400FB801346BB80FB681B88FB82BB681B888D
:1027F400BB82B7F91620B7F904309A4201DB0023F3
:102804001AE0B7F91420B7F906309A4201DC002324
:1028140012E0B7F91620B7F906309A4202DAFB68DB
:10282400FA881A80B7F91420B7F904309A4202DD05
:10283400BB68BA881A80012318461C37BD465DF868
:10284400047B704780B582B000AF78607868FFF78A
:1028540075FF0346002B01D1002308E07868FFF7D9
:1028640092FF0346002B01D1002300E00123184608
:102874000837BD4680BD000090B585B000AF7860D4
:102884007B6800221A867B68B3F92E30032B00F292
:102894006D8101A252F823F0AD28000853290008E5
:1028A400F9290008B52A00087868FFF76CFF034689
:1028B400002B01D100235AE17B68B3F92430FB815A
:1028C400B7F90E30BB817B68B3F92C309AB2B7F9F3
:1028D4000C309BB213449BB21BB2BB817B68B3F92F
:1028E40070407B68B3F970309AB27B68B3F9743086
:1028F4009BB213449BB21BB207F10C0107F10E000B
:102904002246FFF765FF0346002B01D100232EE189
:10291400B7F90E309AB27B68B3F924309BB2D31A5C
:102924009BB21AB27B681A86B7F90E207B689A8428
:10293400B7F90C309AB2B7F90E309BB2D31A9BB2E6
:102944001BB2BB81B7F90C207B689A850EE17868CD
:10295400FFF7F4FE0346002B01D1002307E17B6857
:10296400B3F92630FB81B7F90E30BB817B68B3F92C
:102974002C309AB2B7F90C309BB213449BB21BB201
:10298400BB817B68B3F972407B68B3F972309AB249
:102994007B68B3F976309BB213449BB21BB207F148
:1029A4000C0107F10E002246FFF712FF0346002B2D
:1029B40001D10023DBE0B7F90E309AB27B68B3F99A
:1029C40026309BB2D31A9BB21AB27B681A86B7F927
:1029D4000E207B68DA84B7F90C309AB2B7F90E305E
:1029E4009BB2D31A9BB21BB2BB81B7F90C207B6894
:1029F4009A85BBE07868FFF7C6FE0346002B01D139
:102A04000023B4E07B68B3F92430BB81B7F90C3000
:102A14009BB201339BB21BB2BB81B7F90C30FB8173
:102A2400B7F90E309AB27B68B3F92C309BB2D31A43
:102A34009BB21BB2FB817B68B3F970407B68B3F92E
:102A440070309AB27B68B3F974309BB213449BB272
:102A54001BB207F10C0107F10E002246FFF7B8FE86
:102A64000346002B01D1002381E0B7F90C309AB260
:102A7400B7F90E309BB2D31A9BB21AB27B689A850F
:102A8400B7F90C309BB2013B9BB21BB2BB817B6894
:102A9400B3F924309AB2B7F90C309BB2D31A9BB273
:102AA4001AB27B681A86B7F90C207B689A845DE0B9
:102AB4007868FFF743FE0346002B01D1002356E05C
:102AC4007B68B3F92630BB81B7F90C309BB2013374
:102AD4009BB21BB2BB81B7F90C30FB81B7F90E3046
:102AE4009AB27B68B3F92C309BB2D31A9BB21BB257
:102AF400FB817B68B3F972407B68B3F972309AB298
:102B04007B68B3F976309BB213449BB21BB207F1D6
:102B14000C0107F10E002246FFF75AFE0346002B74
:102B240001D1002323E0B7F90C309AB2B7F90E3083
:102B34009BB2D31A9BB21AB27B689A85B7F90C3050
:102B44009BB2013B9BB21BB2BB817B68B3F92630BD
:102B54009AB2B7F90C309BB2D31A9BB21AB27B6803
:102B64001A86B7F90C207B68DA8400BF0123184663
:102B74001437BD4690BD00BF80B584B000AF786007
:102B84007868FFF779FE0346002B01D1002319E092
:102B94000023FB7312E07B6803F14601FA7B1346C2
:102BA400DB009B1A5B00CA187B68B3F93030194606
:102BB4001046FEF700F9FB7B0133FB73FB7B022B12
:102BC400E9D9012318461037BD4680BD90B583B0BE
:102BD40000AF78607B6893F8AF3003F00803002BF4
:102BE40006D07B68DC69002300220B217868A047AB
:102BF4007B6893F8AF3023F00803DAB27B6883F87C
:102C0400AF2000BF0C37BD4690BD90B585B000AF76
:102C140078600B467B8013463B807B883B813B88F6
:102C24007B817868FFF7D2FF7B68002283F8AE20AF
:102C34007B68DC6907F1080300220A217868A04751
:102C44000346FB81B7F90E30002B08D07B6893F85C
:102C5400AF3043F00803DAB27B6883F8AF20B7F9EA
:102C64000E3018461437BD4690BD90B583B000AF02
:102C74007860084611461A460346FB700B46BB7043
:102C840013467B70FB78002B31D17B6893F8AE2020
:102C9400BB781340DBB2002B08D07B6893F8AF20DD
:102CA400BB781340DBB2BA789A424BD17B68DC69BB
:102CB4007B7819B2FB789AB200237868A0477B68C6
:102CC40093F8AF305AB297F90230DB435BB213404A
:102CD4005BB2DAB27B6883F8AF207B6893F8AE20EE
:102CE400BB781343DAB27B6883F8AE202AE07B68B2
:102CF40093F8AE20BB781340DBB2002B07D07B687F
:102D040093F8AF20BB781340DBB2002B1AD17B6859
:102D1400DC697B7819B2FB789AB200237868A04703
:102D24007B6893F8AF20BB781343DAB27B6883F8EF
:102D3400AF207B6893F8AE20BB781343DAB27B688C
:102D440083F8AE2000BF0C37BD4690BD80B582B07D
:102D540000AF78600B46FB70F9780D230422786885
:102D6400FFF783FF00BF0837BD4680BD80B582B042
:102D740000AF78600B46FB70F9780E230222786866
:102D8400FFF773FF00BF0837BD4680BD80B582B032
:102D940000AF78600B46FB70F9780F230122786846
:102DA400FFF763FF00BF0837BD4680BD90B583B011
:102DB40000AF78600B467B807B68DC697A880023EF
:102DC4000C217868A04700BF0C37BD4690BD80B584
:102DD40082B000AF78600B467B8007E04FF47A71D5
:102DE4007868FFF7E3FF7B88013B7B807B88002BBF
:102DF400F4D100BF0837BD4680BD90B583B000AFA5
:102E040078600B46FB707B68DC69FB789AB2002320
:102E140010217868A04700BF0C37BD4690BD90B51F
:102E240087B000AFF8600B467A607B8110E07B6866
:102E34001B78FB75FB68DC69FB7D9AB200231021CB
:102E4400F868A0477B6801337B607B89013B7B8109
:102E54007B89002BEBD100BF1C37BD4690BD80B5EC
:102E640084B000AFF860B96011461A460B46FB7196
:102E74001346BB71FB6893F8B0305B08DBB203F018
:102E84000103DBB21946F868FFF780FFFB799BB2B8
:102E9400BA681946F868FFF7C2FFBB79002B14D053
:102EA400FB79BA681344BB60FB6893F8B03003F055
:102EB4000103DBB21946F868FFF768FFBB799BB2E0
:102EC400BA681946F868FFF7AAFF00BF1037BD4675
:102ED40080BD000080B584B000AF786039603B6885
:102EE4001B78FB73FB7B1B09BB73FB7B03F00F039A
:102EF4007B73BB7B0F2B00F2248101A252F823F0D9
:102F040047310008452F0008452F0008452F0008C9
:102F14004731000847310008652F0008972F000843
:102F2400DB2F000807300008333000089330000816
:102F3400473100084731000847310008F3300008E2
:102F44003B68591C7B7BBA7B7868FFF788FFBB7BA7
:102F54005A1C7B7B13441A463B6813443B60EFE0E6
:102F64007B6893F8B03003F00103DBB2194678684C
:102F7400FFF70CFF7B7B99B23B6801331A467868F4
:102F8400FFF74DFF7B7B01331A463B6813443B60DC
:102F9400D6E07B6893F8B0305B08DBB203F0010342
:102FA400002B0CBF01230023DBB219467868FFF71E
:102FB400EDFE7B7B002B07D07B7B99B23B68013312
:102FC4001A467868FFF72BFF7B7B01331A463B6870
:102FD40013443B60B4E03B6801333B603B681B78BF
:102FE400FB737B7B9BB21B029AB2FB7B9BB21344A9
:102FF4009BB219467868FFF7EAFE3B6801333B60F1
:103004009EE03B6801333B603B681B78FB737B7B32
:103014009BB21B029AB2FB7B9BB213449BB2194630
:103024007868FFF7C3FE3B6801333B6088E03B6888
:1030340001333B603B681B78FB733B6801333B60A7
:103044003B681B783B733B6801333B607B6893F8B8
:10305400B03003F00103DBB219467868FFF796FE3F
:103064007B68B3F924301A467B68B3F920301A44DC
:103074007B7B42FA03F3DAB2FB7B1340DAB23B7B8D
:103084001343DBB219467868FFF7B7FE58E03B6894
:1030940001333B603B681B78FB733B6801333B6047
:1030A4003B681B783B733B6801333B607B6893F858
:1030B400B03003F00103DBB219467868FFF766FE0F
:1030C4007B68B3F926301A467B68B3F922301A4478
:1030D4007B7B42FA03F3DAB2FB7B1340DAB23B7B2D
:1030E4001343DBB219467868FFF787FE28E07B7B41
:1030F4009B08BB737B7B03F003037B73BB7B012BBC
:103104000CD0032B13D0002B16D17B7B03F00103CF
:10311400DBB219467868FFF719FE0DE07B7B03F0FC
:103124000103DBB219467868FFF720FE04E07B68F0
:103134007A7B83F8B02000BF3B6801333B6000BF5B
:10314400CDE600BF1037BD4680BD00BF70B50D4D44
:103154000D4C641BA4100026A64209D10B4D0C4C47
:1031640000F018F8641BA4100026A64205D170BD17
:1031740055F8043B98470136EEE755F8043B984769
:103184000136F2E7C83B0008C83B0008C83B00080A
:10319400CC3B0008F8B500BFF8BC08BC9E4670479D
:0C31A400F8B500BFF8BC08BC9E467047A0
:1031B0004E686F6D20332E74746373007563675FA0
:1031C00044726177537472696E670000F4113600BF
:1031D000102AA00000A0FF0062007F102BB00000AA
:1031E000B0FF0062009F102C70000000F411360048
:1031F000102AA00000A0FF00620081102BB0000088
:10320000B0FF006200A0102C70000000F411360026
:10321000102AA00000A0FF00A00000A0FF00102BBB
:10322000B00000B0FF0062009F102C700000000092
:10323000F4113640113640102AA00000A0FF0062B1
:10324000007F102BB80100B0FF0062009F102C70AF
:1032500000000000F4113680113680102AA0000012
:10326000A0FF00A00000A0FF00102BB00000B0FFE6
:103270000062009F102C7000F410101028F5000060
:10328000FDF1F58005F08005F18032F41011800A1F
:1032900010131020113A061029113600142A0000CC
:1032A000007F142B0000009F102CF500BF000302CC
:1032B0000304030504060D00FE09FE090001700267
:1032C000E4200500EE072107C9C3C7210922071B17
:1032D000DB476209230EBDC64F294906A53228A542
:1032E0002401240CBDC6573628D9960C5A04251043
:1032F0004EC24FA6444914A6612989122D01260DFC
:103300003EC28F16B56951A2454B00270699DBC70F
:1033100000280B4BC3571225512DCA02290C4BC351
:1033200047166551254A22002A0C2ECA4F9449C3DC
:10333000A44509002B0AADCA57180D5218012C08D4
:103340009CBECFA264002D068DD2C7202E081BBFC5
:103350004FB224002F0BCDC2672DCC8A59180230F2
:103360000D4EC2971625A1C724CA2400310BCDC229
:10337000572625614F8300320E4EC2CF9084621AC9
:10338000665A980E03330D4EC2C7352CCEA9980C41
:103390000900340F4EC267A82551254BB26418D3DB
:1033A00004350E4EC2C721AD2C5A9A8AC9900036F8
:1033B0000E4EC2D714A6954513C5644800370C4E6F
:1033C000C2C735AC8669988600380F4EC2CF90844C
:1033D000C664484263322400390D4EC2CF90843611
:1033E00065498BD1043A0B43BF4FB2E448B2240085
:1033F0003B0BC4BE5734E5D8A264003C08CDC2677D
:10340000D6B5033D0826CAC71D1D063E09CDC247D5
:10341000DAAD23003F0D4EC2CF9084621A5673304E
:103420000240104EC2CF9084A6218994644AE421C0
:1034300001410D4EC2971625A17118446300421236
:103440004EC2C72065499664C91065499664C30297
:10345000430C4EC2CF90846A8FC9900044124EC272
:10346000C72065499664499664499664C302450C31
:103470004EC2C721AD0E515A1D06460B4EC2C72182
:10348000AD0E51DA0A470D4EC2CF90846AD3106A4E
:10349000CA12480B4EC247E8380CA26300490ACD55
:1034A000C2C720857D1A044A0B4EC2DF98F69245AA
:1034B00013004B104EC247A825512513932CAA2563
:1034C00061004C094EC247DAAFC3004D0B4EC247F4
:1034D000380DD1E2D1314E0D4EC247286E4A242517
:1034E000DA680C4F0B4EC2CF90847E4C8604500C91
:1034F0004EC2C7A084C661495B01510E56BECF9033
:1035000084BE4452920C7100520E4EC2C7A084C6B3
:1035100061A945B5240C530F4EC2CF90846A3CC4B8
:10352000A9980C09005409CDC2C72085FD04550A8D
:103530004EC247E88FC99000560C4EC247684CA255
:10354000DE441300570B4EC247E8C5651AA2315836
:103550000E4EC2472826519B16B5846200590CCDE9
:10356000C247A625A5240B3B015A0B4EC2C7352CDA
:103570008AADC3005B09DCBEC7A0F5B7215C0BCDEB
:10358000C247988669310D035D09DCBEC790F5B767
:10359000415E089DDA5796D4025F060EBEC70160F1
:1035A0000612E34714610C36C2CF1027C3A8294B7B
:1035B00000620D4EC247DAB268A2B8290B00630C54
:1035C00036C2CF90846A31191200640B4EC26FCBA1
:1035D000A28D366509650D36C2CF9084C3A086C919
:1035E0009000660D4EC2D794256938646923006740
:1035F0000F46BACFA2255934C54312264302680BA1
:103600004EC247DAB268A26300690AC5C2578E8803
:103610009D06016A0CD5BA678E888D9A962C006B30
:103620000D4EC247DA9644D116D592306C09CDC200
:103630008FD84F83006D0DB5C287D2A2244AA22431
:103640005A006E0A36C247B268A263006F0B36C2D8
:10365000CF90848EC99000700C46BA47B268E2A63B
:103660002C6915710B46BACFA28D9AB2A40D720ABD
:1036700036C247326549DA08730D36C2CF90848965
:10368000AC84C99000740C46C24F1A0E59DA162D3C
:1036900000750936C247E84D5902760BB5C2476638
:1036A0004B4A491601770BB5C24766499444E90273
:1036B000780C36C247984499A8454918790D46BAFE
:1036C00047E8A62CA9980C09007A0836C2C7B1E3CE
:1036D000307B0CDDBED7125623350BAB037C06C9FD
:1036E000C3C7037D0DDDBEC71AD652290D2B1300AB
:1036F0007E099DDA4FA4245202A00500EE07A1081E
:10370000C9C347320C01A20EC5C657B654942889C6
:1037100092CA1601A30D4EC2D794256938A6356505
:1037200001A40C36C647980C51A7210903A50F4DDB
:10373000C247A625A52419A46890C208A608C9C333
:10374000C7900C01A70ED4C28F12894A2425A294D7
:103750002800A80794DE472405A9114EC2CF908403
:103760008A25522225528CC99000AA0CBDCACF9A34
:103770000C5A32A48300AB0F3EC65F1225511225AE
:103780006112266112AC079DCAC72016AD068CD205
:10379000C710AE114EC2CF90848A255992C5928C23
:1037A000C99000AF068DE2C720B009A4D68F124998
:1037B0008902B10CBDC657180D5298038300B20898
:1037C000B3D24F53521AB309B3D2C794644A05B463
:1037D0000612E38F02B50A3EBE47E8382D5600B602
:1037E000134EC2CF3028C9922C9192255992255957
:1037F0009200B7060AD38700B80612BB8F02B90839
:10380000B3D24F22B50CBA0AB4CE8F1249893A040A
:10381000BB103EC647122661122651122551920155
:10382000BC0E56C24FA8B60D89966449B606BD0DAA
:1038300056C24FA83625439286D501BE1056C2C740
:103840001AC659122591966449B606BF0D4EC25745
:103850000EA6613514932101C00F56C2579C635ABE
:103860009484E230886200C10F56C25F98835A94F4
:1038700084E230886200C20F56C29716E590162582
:10388000A1380CA218C30F56C28F6487B42809C58B
:103890006110C500C40F56C24FD40E6951128AC3BD
:1038A000208A01C50F56C2971665A21625A1380CAD
:1038B000A218C6124EC24F322459922559724BB2E9
:1038C000244B8600C70D5EBACF90846A8FC910D68C
:1038D00000C80F56C2579C23C390A64394A6C300AA
:1038E000C90F56C25F9843C390A64394A6C300CAAB
:1038F0000F56C29716E5C0214D87284D8701CB0E84
:1039000056C24FD40E1CD27488D27418CC0CD5C2B7
:103910004F9A038314761A04CD0CD5C2579623838D
:1039200014761A04CE0CD5C25796C48314761A04A2
:10393000CF0CD5C247A6A58314761A04D0124EC266
:10394000C72065499664439464499664C302D10FC5
:1039500056C28F6407C24D8994484AB431D20D567D
:10396000C2579C4343127A4C8604D30D56C25F98CB
:103970006343127A4C8604D40E56C29716E5C8905B
:10398000841E932101D50E56C28F64478624F49875
:103990000C0900D60E56C24FD48E0C49E8311912CC
:1039A00000D70C36C647984499A8454918D8145EE4
:1039B000BE6F3224D9944889122991126DC990A4FE
:1039C00000D90C56C2579C23A18FC99000DA0C561F
:1039D000C25F9843A18FC99000DB0D56C29716E5D0
:1039E00040E863322400DC0C56C24FD40E843E26DD
:1039F0004302DD0CD5C25F1DC8B4A4163601DE0D2E
:103A00004EC2473A28A17158D22A00DF0ECDC28F8C
:103A1000548992521255328B02E00E4EC2579C438B
:103A2000439C0CA3A62C01E10E4EC25F9863439CFD
:103A30000CA3A62C01E20F4EC29716E5C81027C3AF
:103A4000A8294B00E30E4EC28F6447863819464DB5
:103A50005902E40E4EC24FD48E0C71328C9AB204CD
:103A6000E50F56C29716653A34C4C9306ACA12E6E1
:103A70000D36C28F1226C930B5244A02E70D46BA68
:103A8000CF90846A3119C21A00E80F4EC2579C4386
:103A900043120E831A264302E90F4EC25F98634316
:103AA000120E831A264302EA104EC29716E5C890FA
:103AB00084C3A086C99000EB104EC24FD48E0C492F
:103AC000380C6A980C0900EC0ACDC24F9A2362A701
:103AD00041ED0ACDC257964362A741EE0BCDC28F8E
:103AE0005407C44E8300EF0CCDC24794443920766E
:103AF0001A04F01056C24F9469491C0D49E8980CFD
:103B00000900F10C4EC28F64079245131D03F20D9C
:103B10004EC2579C4343123A264302F30D4EC25FF6
:103B2000986343123A264302F40E4EC29716E5C834
:103B300090848EC99000F50D4EC28F644786247420
:103B40004C8604F60E4EC24FD48E0C49E8980C09F0
:103B500000F70CBDC6579803830E841100F80F467A
:103B6000BE6F3224D99428D1960C490AF90B4EC263
:103B7000579C23A1376509FA0B4EC25F9843A137C2
:103B80006509FB0C4EC29716E540E84D5902FC0B47
:103B90004EC24FD40E84DE9425FD0F5EBA5F98436B
:103BA000A19BB2A462322400FE0E56BA475A593481
:103BB00051DC94254D01FF0F5EBA4FD40E846ECABE
:083BC000928AC9900000000088
:043BC800B901000837
:043BCC009501000857
:103BD00000BD010500000000000000000102030418
:103BE00006070809FF0000000000000001020304AE
:083BF0000102030406070809A5
:0400000508000241AC
:00000001FF
